:040000008A156F2DC1
:10000800FF00030E8301CC000A08CD008A017008A6
:10001800A4007108A3007208A2007308A1008A1541
:100028005B258A1101307006031D1D28F627013053
:10003800A5002408F0002308F1002208F200210896
:10004800F3004D088A004C0E8300FF0E7F0E090056
:1000580083160313141936281F301105F000031DE9
:08006800362837282C28080077
:100070004B28053083120313F10062280630F1008B
:1000800062280730F10062280830F1006228093048
:10009000F10062283729831203135B080A3A031917
:1000A00039285B080B3A03193E285B080C3A031900
:1000B00041285B080D3A031944285B080E3A0319DE
:1000C00047284A2814298312031301305D06031DB3
:1000D0006D28710884000014782800305D06031D27
:1000E00075287108840000107828710884000010B9
:1000F00037298312031301305D06031D832871081D
:10010000840080148E2800305D06031D8B28710842
:10011000840080108E287108840080103729831293
:10012000031301305D06031D992871088400001532
:10013000A42800305D06031DA12871088400001169
:10014000A428710884000011372983120313013099
:100150005D06031DAF28710884008015BA280030A1
:100160005D06031DB728710884008011BA28710844
:100170008400801137298312031301305D06031DAB
:10018000C528710884000016D02800305D06031DC4
:10019000CD28710884000012D02871088400001254
:1001A00037298312031301305D06031DDB28710814
:1001B00084008016E62800305D06031DE3287108E0
:1001C00084008012E6287108840080123729831287
:1001D000031301305D06031DF12871088400001728
:1001E000FC2800305D06031DF92871088400001307
:1001F000FC2871088400001337298312031301308F
:100200005D06031D0729710884008017122900303C
:100210005D06031D0F2971088400801312297108DF
:100220008400801337293729831203135C08003AAE
:10023000031963285C08013A031979285C08023A1B
:1002400003198F285C08033A0319A5285C08043AAF
:100250000319BB285C08053A0319D1285C08063A43
:100260000319E7285C08073A0319FD281329080039
:0E027000831203135908AD005808AE000800B1
:0A027E00831203135808C2000800A1
:1002880083120313F801F9011030FC00710DF80D09
:10029800F90D7408F8027508031C750FF9020318A4
:1002A8005C297408F80775080318750FF907031017
:0A02B800F00DF10DFC0B4A290800BF
:1002C200013083120313DA0077290530F1008C29FB
:1002D2000630F1008C290730F1008C290830F1003A
:1002E2008C290930F1008C29DA018C2958080A3A44
:1002F2000319662958080B3A0319692958080C3A58
:1003020003196C2958080D3A03196F2958080E3A37
:1003120003197229752901305A06031D0C2AEB298B
:10032200710884000008F000701C9A290130DA007C
:100332009B29DA010C2A710884000008F000F01CE5
:10034200A5290130DA00A629DA010C2A71088400F5
:100352000008F000701DB0290130DA00B129DA017D
:100362000C2A710884000008F000F01DBB2901303E
:10037200DA00BC29DA010C2A710884000008F000B6
:10038200701EC6290130DA00C729DA010C2A710869
:1003920084000008F000F01ED1290130DA00D229D1
:1003A200DA010C2A710884000008F000701FDC29B1
:1003B2000130DA00DD29DA010C2A71088400000814
:1003C200F000F01FE7290130DA00E829DA010C2AEF
:1003D200DA010C2A5908003A031991295908013AFD
:1003E20003199C295908023A0319A7295908033A03
:1003F2000319B2295908043A0319BD295908053AC3
:100402000319C8295908063A0319D3295908073A82
:0C0412000319DE29E9295A08F00008004F
:0A041E00831203134508F0000800E4
:100428000C3083120313DB000130DC00DD013820BF
:020438000800BA
:06043A002C201115080042
:100440002C208312580893002C2040301105F20014
:100450000630F1007208F00071080319332AF00C1D
:08046000F013FF3E2D2A0800F5
:100468000C3083120313DB000230DC000130DD00A6
:0C0478003820013083120313A600080096
:060484002C2011140800F9
:10048A000C3083120313DB000230DC00DD0138205C
:08049A0083120313A601080000
:1004A2000C3083120313DB00DC01DD01382008006D
:0E04B200831203135808AF005908B000080069
:1004C00083120313F8010830FC00700DF80D740856
:1004D000F80203186D2AF8070310F00DFC0B652ACB
:0204E000080012
:1004E200831203135808CA005908C9005A08C800E1
:0204F200080000
:1004F400902A0B3083120313DB000430DC0001303C
:10050400DD0038209B2A0B3083120313DB000530F7
:10051400DC000130DD0038209B2A9B2A8312031360
:100524005808003A03197B2A5808013A0319852A06
:040534008F2A080002
:100538000B3083120313DB00DC0101305805DD00AA
:1005480038200B3083120313DB000130DC0000304D
:10055800D8180130DD0038200B3083120313DB007C
:100568000230DC00003058190130DD0038200B3033
:1005780083120313DB000330DC000030D81901308C
:06058800DD003820080030
:10058E0083120313D901D52A3D08D900E22A3E0869
:10059E00D900E22A3F08D900E22AE22A5808003A96
:1005AE000319CB2A5808013A0319CE2A5808023AE1
:0C05BE000319D12AD42A5908F0000800C3
:1005CA0083120313FB01FA01F901F801A001730D6B
:1005DA00F80D7408F8027508031C750FF9027608FD
:1005EA00031C760FFA027708031C770FFB0200013F
:1005FA00031C0130A002F30D0730FC00730DF80D47
:10060A00F90DFA0DFB0DA00D7408731C1E2BF802D0
:10061A007508031C750FF9027608031C760FFA0297
:10062A007708031C770FFB020001031C0130A002AC
:10063A002F2BF80775080318750FF90776080318A2
:10064A00760FFA0777080318770FFB0700010318DC
:10065A000130A007F30DFC0B032B720DF80DF90DF9
:10066A00FA0DFB0DA00D7408731C4D2BF8027508CA
:10067A00031C750FF9027608031C760FFA02770835
:10068A00031C770FFB020001031C0130A0025E2B42
:10069A00F80775080318750FF90776080318760F17
:1006AA00FA0777080318770FFB07000103180130D0
:1006BA00A007F20D0730FC00720DF80DF90DFA0DC6
:1006CA00FB0DA00D7408721C7C2BF8027508031C24
:1006DA00750FF9027608031C760FFA027708031CD5
:1006EA00770FFB020001031C0130A0028D2BF807D3
:1006FA0075080318750FF90776080318760FFA07B5
:10070A0077080318770FFB07000103180130A007C9
:10071A00F20DFC0B612B710DF80DF90DFA0DFB0DA5
:10072A00A00D7408721CAB2BF8027508031C750F18
:10073A00F9027608031C760FFA027708031C770F72
:10074A00FB020001031C0130A002BC2BF80775084C
:10075A000318750FF90776080318760FFA07770852
:10076A000318770FFB07000103180130A007F10DEA
:10077A000730FC00710DF80DF90DFA0DFB0DA00DF7
:10078A007408711CDA2BF8027508031C750FF9023C
:10079A007608031C760FFA027708031C770FFB0210
:1007AA000001031C0130A002EB2BF807750803189F
:1007BA00750FF90776080318760FFA0777080318F2
:1007CA00770FFB07000103180130A007F10DFC0B9E
:1007DA00BF2B700DF80DF90DFA0DFB0DA00D740865
:1007EA00711C092CF8027508031C750FF9027608AA
:1007FA00031C760FFA027708031C770FFB0200012D
:10080A00031C0130A0021A2CF80775080318750F8B
:10081A00F90776080318760FFA0777080318770F8F
:10082A00FB07000103180130A007F00D0730FC0098
:10083A00700DF80DF90DFA0DFB0DA00D7408701C62
:10084A00382CF8027508031C750FF9027608031C88
:10085A00760FFA027708031C770FFB020001031CCC
:10086A000130A002492CF80775080318750FF9071B
:10087A0076080318760FFA0777080318770FFB072D
:10088A00000103180130A007F00DFC0B1D2C701895
:10089A005C2C7408F80775080318750FF9077608B1
:1008AA000318760FFA0777080318770FFB07080073
:1008BA000030831203134006031D652CF001672CD8
:0608CA000130F0000800FF
:1008D0007C2C0B3083120313DB000430DC00DD01C1
:1008E0003820872C0B3083120313DB000530DC002B
:1008F000DD013820872C872C831203135808003A17
:100900000319692C5808013A0319722C7B2C080032
:10091000831203135808AB005908AC005A08B10001
:020920000800CD
:10092200A42C853083120313F100BB2C8630F10016
:10093200BB2C8730F100BB2C8830F100BB2C8930F6
:10094200F100BB2C902D8312031354080A3A0319A9
:10095200922C54080B3A0319972C54080C3A031999
:100962009A2C54080D3A03199D2C54080E3A031977
:10097200A02CA32C6D2D8312031300305606031DE9
:10098200C62C710884000010D12C01305606031DBC
:10099200CE2C710884000014D12C7108840000143C
:1009A200902D8312031300305606031DDC2C7108B0
:1009B20084008010E72C01305606031DE42C7108D8
:1009C20084008014E72C710884008014902D831217
:1009D200031300305606031DF22C71088400001127
:1009E200FD2C01305606031DFA2C710884000015F7
:1009F200FD2C710884000015902D83120313003022
:100A02005606031D082D710884008011132D013034
:100A12005606031D102D710884008015132D7108D0
:100A220084008015902D8312031300305606031D97
:100A32001E2D710884000012292D01305606031D57
:100A4200262D710884000016292D710884000016D5
:100A5200902D8312031300305606031D342D7108A6
:100A6200840080123F2D01305606031D3C2D710873
:100A7200840080163F2D710884008016902D831209
:100A8200031300305606031D4A2D7108840000131B
:100A9200552D01305606031D522D71088400001792
:100AA200552D710884000017902D83120313003016
:100AB2005606031D602D7108840080136B2D0130D2
:100AC2005606031D682D7108840080176B2D71086E
:100AD20084008017902D902D831203135508003A3D
:100AE2000319BC2C5508013A0319D22C5508023AB5
:100AF2000319E82C5508033A0319FE2C5508043A49
:100B02000319142D5508053A03192A2D5508063ADA
:100B12000319402D5508073A0319562D6C2D08006C
:100B22002C2091152C20083083120C05F20072083B
:100B3200F000F00CF013F00CF013F00CF01370084E
:0E0B4200031DA42D942D8C111308F000080043
:100B5000093083120313FD00FD0BAC2D00000000D3
:100B6000C0309F055408F000F00D7010F00D7010AB
:100B7000F00D701070089F049E0183169E01831271
:100B80001F140930FD00FD0BC32D000000001F15D0
:020B900008005B
:060B92002C209114080064
:100B9800422EE92D83120313BD010D30D800D9016F
:100BA800612100307006031DDB2D0130B900F42DE2
:100BB8000D30D800D901612101307006031DE72DE1
:100BC800B9010130BD00F42DF42D83120313390847
:100BD800003A0319CE2D3908013A0319DC2DE82D06
:100BE800512E112EBE010D30D8000130D9006121DF
:100BF80000307006031D022E0130BA001A2E0D3087
:100C0800D8000130D900612101307006031D0F2E74
:100C1800BA010130BE001A2E1A2E3A08003A0319FA
:100C2800F62D3A08013A0319032E102E512E372EAD
:100C3800BF010D30D8000230D900612100307006A4
:100C4800031D282E0130BB00402E0D30D800023085
:100C5800D900612101307006031D352EBB0101301A
:100C6800BF00402E402E3B08003A03191C2E3B08BB
:100C7800013A0319292E362E512E512E83120313B1
:100C88005408003A0319CD2D5408013A0319F52DDB
:0C0C98005408023A03191B2E412E0800DC
:100CA4004030831203130C05F2000630F100720881
:100CB400F00071080319622EF00CF013FF3E5C2E55
:020CC400080026
:0E0CC600831203134F088A004E0882000800B4
:100CD4002830831203139400831691019401831224
:100CE4005408F4005508F5005608F6005708F700B4
:100CF4004030F0004230F1000F30F2000030F300D9
:0E0D0400E5227003831693008715071608007A
:100D120083120313FB01FA01F9018030F800F10C90
:100D2200F00C031C9D2E7408F90775080318750F43
:100D3200FA070318FB0A0310F01FA52E7408FA071E
:100D420075080318750FFB07FB0CFA0CF90CF80C6D
:100D5200031C902E7B08F3007A08F2007908F10058
:060D62007808F000080013
:080D6800831203130C130800B1
:0A0D7000831203135408C6000800A4
:100D7A00063083120313F1005408F00071080319B6
:100D8A00CA2EF00D7010FF3EC42E70089F00540842
:100D9A00F200F20CF213F20CF2130630F1007208B0
:100DAA00F00071080319DD2EF00D7010FF3ED72EEA
:100DBA00700883169F000C1383120C1383169F1757
:020DCA0008001F
:100DCC004222503083125404D800D80D58102022DF
:100DDC008312031370080319F42EE72E5508D8005C
:100DEC0020228312031370080319FD2EF42E5608CB
:100DFC00D80020228312031370080319062FFD2E2E
:040E0C001D2208009B
:100E1000831203131E08F300F4017308F100F001BC
:0C0E200083161E08F0040030F1040800E6
:100E2C00F030831603139F0583125408063C0318F5
:100E3C00252F540AF000700883169F04292F831263
:100E4C00540883169F04073089042F30850408004A
:080E5C00831603138C14080037
:100E64005D2401307006031DAF2FA02FD801C722C7
:100E740001307006031D402F0130C700AC2FD8018C
:100E8400C72201307006031D492FC7015C2F0130B2
:100E9400D800C722013070060319582F0230D80039
:100EA400C722013070060319582F5C2F0230C70087
:100EB400FA30B800AC2FD801C72201307006031DE8
:100EC400652FC7019F2F3808003A03199F2F01305F
:100ED400D800C72201307006031D812F4B30270232
:100EE4000318812F05302707F0007008A700FA3097
:100EF400B8007008D8000130D9003821982F02308A
:100F0400D800C72201307006031D982F2708233C00
:100F14000318982F05302702F0007008A700FA3054
:100F2400B8007008D8000130D9003821B803003067
:100F34003806031D9F2F0130C700AC2F4708003A25
:100F44000319382F4708013A0319412F4708023A79
:0C0F540003195D2F2708D8003F2108007A
:080F60007F308B050B17080020
:100F68000130831203132606031DBC2F4522BD2F13
:040F78003422080017
:0C0F7C008312031354088316920008002F
:100F8800831203139201FF3083169200831291019A
:080F98008C1083168C10080078
:100FA00083120313C001B40300303406031DDC2F89
:0A0FB0000430B4000130C000080056
:080FBA00831203131215080055
:100FC2000C3083120313DB00DC010130DD0038201A
:020FD200080015
:100FD4000C3083120313DB000130DC000130DD0030
:040FE40038200800A9
:040FE8008B1708005B
:080FEC00831203138C100800AE
:101000000D2883120313540892001C2854089200E0
:101010001C28540892001C281C288312031354080F
:10102000003A031901285408013A03190628540804
:10103000023A031909280C28CE285508F000F00DB3
:101040007010F00D7010F00D7010700892040F29E0
:101050005508F000F00D7010F00D7010F00D7010CC
:10106000700892040F295508F000F00D7010F00D73
:101070007010F00D7010700892040F295508F000E0
:10108000F00D7010F00D7010F00D701070089204DB
:101090000F295508F000F00D7010F00D7010F00DD4
:1010A0007010700892040F295508F000F00D7010B0
:1010B000F00D7010F00D7010700892040F29550893
:1010C000F000F00D7010F00D7010F00D7010700841
:1010D00092040F295508F000F00D7010F00D7010FB
:1010E000F00D7010700892040F295508F000F00DF3
:1010F0007010F00D7010F00D7010700892040F2930
:101100005508F000F00D7010F00D7010F00D70101B
:10111000700892040F295508F000F00D7010F00DC2
:101120007010F00D7010700892040F295508F0002F
:10113000F00D7010F00D7010F00D7010700892042A
:101140000F295508F000F00D7010F00D7010F00D23
:101150007010700892040F295508F000F00D7010FF
:10116000F00D7010F00D7010700892040F295508E2
:10117000F000F00D7010F00D7010F00D7010700890
:1011800092040F295508F000F00D7010F00D70104A
:10119000F00D7010700892040F290F295508003ABD
:1011A00003191D285508013A031928285508023A41
:1011B000031933285508033A03193E285508043A01
:1011C000031949285508053A031954285508063AC1
:1011D00003195F285508073A03196A285508083A81
:1011E000031975285508093A0319802855080A3A41
:1011F00003198B2855080B3A0319962855080C3A01
:101200000319A12855080D3A0319AC2855080E3AC0
:101210000319B72855080F3A0319C228CD2808002A
:101220008A115D248A1501307006031D7129D801C9
:101230008A11C7228A1501307006031D3829262914
:10124000AA0137290130AA00372937292A08013A8B
:10125000031920292A08023A031920292A08033AE7
:10126000031920292A08003A03192229252971295E
:101270000130D8008A11C7228A150130700603197F
:101280004B290230D8008A11C7228A150130700616
:1012900003194B29712960290230AA000530A900E1
:1012A000C830C100C830A80071290330AA00053039
:1012B000A900C830C100C830A8007129712971295E
:1012C0002A08013A03194C292A08033A03194C2920
:1012D0002A08023A031955292A08003A03195E29F7
:0412E0005F2908007A
:1012E4000130831203134606031DBD29B0290A30B9
:1012F400B700C301C401BC29B7038A110F228A15A0
:101304007008C3070318C40A00303706031DAF2949
:101314000A30B7000A30F4000030F5004308F0004A
:101324004408F1008A1144218A157008C300710829
:10133400C4002708D8007008D9000130DA008A11E7
:1013440088248A152708D8004308D9000130DA0018
:101354008A1171228A15C301C401BC294708003AC5
:10136400031979294708013A03197E294708023AE3
:0813740003197E29C6010800DF
:10137C0083120313D8018A117A228A150130831241
:10138C000313D8008A117A228A15FF290A30831296
:10139C000313F4004208F0008A1160228A157008C9
:1013AC00D8008A119C228A1583120313D8018A1142
:1013BC0068248A15013083120313BC000A2A0A30F0
:1013CC00F4004208F0008A1160228A157808F000B7
:1013DC007008D8008A119C228A15013083120313DD
:1013EC00D8008A1168248A1583120313BC010A2AB7
:1013FC000A2A831203133C08003A0319CC293C082F
:0A140C00013A0319E529FE29080042
:1014160083120313D4012C082B02D4008A115D24F5
:101426008A1501307006031D4E2A412AD8018A11F9
:10143600C7228A1501307006031D242A0130B20026
:101446002F2A8A1151228A1583120313D8010130DB
:10145600D9008A1159228A154E2AD8018A11C72223
:101466008A1501307006031D3F2AB201D8010130EA
:10147600D9008A1159228A154E2A4E2A3208003A74
:101486000319192A3208013A0319302A3208023A96
:101496000319302A402A01303106031D762A6A2AAA
:1014A600762A80305406F0008030053A7002031C1C
:1014B6005E2A0230B200762A80302C06F000803098
:1014C6002B067002031C692A0130B200762A320804
:1014D600003A0319532A3208013A0319542A3208EA
:0814E600023A03195F2A080015
:1014EE0083120313D4014A084902D4008A115D24E1
:1014FE008A1501307006031DBA2AAD2AD8018A1149
:10150E00C7228A1501307006031D902A0130CB00C8
:10151E009B2A8A1114228A1583120313D8010130D3
:10152E00D9008A1159228A15BA2AD8018A11C722DE
:10153E008A1501307006031DAB2ACB01D80101308C
:10154E00D9008A1159228A15BA2ABA2A4B08003AAA
:10155E000319852A4B08013A03199C2A4B08023AB3
:10156E0003199C2AAC2A01304806031DE22AD62A0A
:10157E00E22A80305406F0008030053A7002031CD7
:10158E00CA2A0230CB00E22A80304A06F0008030B0
:10159E0049067002031CD52A0130CB00E22A4B0803
:1015AE00003A0319BF2A4B08013A0319C02A4B0807
:0815BE00023A0319CB2A0800D0
:1015C6000C3083120313D400D501D6018A1191245D
:0A15D6008A158A1151228A150800B7
:1015E000013083120313D4008A11BD268A15831299
:0A15F000D4018A1116278A1508009D
:1015FA000B2201303106031D352B282B8A1151226B
:10160A008A1583120313D8010130D9008A1159228D
:10161A008A15342B8A1151228A1583120313D80191
:10162A000130D9008A1159228A15342B8A11E127EF
:10163A008A15023083120313D8000130D9008A11A7
:10164A0059228A15342B3208003A0319032B32081F
:10165A00013A03190F2B3208023A03191B2BB10165
:02166A00080076
:10166C000130831203133006031D582B4A2B8A11A9
:10167C0045228A15572B8A1134228A15572B8A1129
:10168C00B4278A15572B572B2F08003A03193D2BDB
:10169C002F08013A0319412B2F08023A0319452B45
:0616AC00492BB00108000B
:1016B2000B3083120313D400D501D6018A11912471
:1016C2008A150B3083120313D4000130D500D601E2
:1016D2008A1191248A150B3083120313D40002302D
:1016E200D500D6018A1191248A150B308312031377
:1016F200D4000330D500D6018A1191248A150B300B
:1017020083120313D4000430D500D6018A11912428
:101712008A150B3083120313D4000530D500D6018D
:081722008A1191248A150800C8
:10172A008A11D0278A1501304006031DAA2BD4013D
:10173A008A11CC258A150130D4008A11CC258A1544
:0C174A000230D4008A11CC258A1508005A
:101756000C3083120313D4000230D500D6018A114F
:0C17660091248A158A1145228A1508007A
:101772000C3083120313D4000130D500D6018A1134
:0C17820091248A158A1114228A1508008F
:10178E008A115D248A1501307006031D242C1B2C32
:10179E00D8018A11C7228A1501307006031DDB2B72
:1017AE000130B3000530B600242CD8018A11C722AF
:1017BE008A1501307006031DE62BB301192CB501F5
:1017CE00B60300303606031D192CD4018A11A82544
:1017DE008A150130B5008A1152268A1500308312FF
:1017EE0003137006031DFC2BF22B8A1108278A1592
:1017FE000530F4000030F5008A1189268A150A306A
:10180E00F4000030F5008A1144218A157008C500D5
:10181E008A11B4268A150530B6000130D4008A111B
:10182E00B8268A15242C242C3308003A0319CF2B02
:0C183E003308013A0319DC2B1A2C0800B7
:10184A00772201304806031D572C482C8A1114228E
:10185A008A1583120313D8010130D9008A1159223B
:10186A008A15542C8A1114228A15542C8A11EA27B3
:10187A008A15013083120313D8000130D9008A1166
:10188A0059228A15542C4B08003A03192B2C4B0861
:10189A00013A0319372C4B08023A03193B2C8312DD
:0618AA000313C801080051
:1018B0008A1142228A15503083125004D800D80D64
:1018C00058108A1120228A158312031370080319F5
:1018D0006A2C5B2C5108D8008A1120228A158312A9
:1018E000031370080319752C6A2C8A11C9258A15EF
:1018F000503083125004D800D80D581058148A1153
:1019000020228A158312031370080319882C782C5F
:101910008A1191258A157008D2008A111D228A1514
:0819200083125208F0000800D8
:101928008A11B0278A158A11C4278A1501308312B3
:10193800D4000430D5000020FA30D4008A11BE2724
:101948008A158A112E278A158A11F4278A158A1171
:06195800DD278A150800DE
:10195E00831203135008D4005108D5005208D60044
:0C196E005308D7008A116A268A15080069
:10197A000D3083120313D400D5010130D6008A1129
:10198A0091248A150D3083120313D4000130D50037
:10199A000130D6008A1191248A150D30831203135F
:1019AA00D4000230D5000130D6008A1191248A155C
:0219BA00080023
:0A19BC008A1132278A1572210800F3
:1019C60010212C2DBE213D2DD8018A117A228A158F
:1019D600013083120313D8008A117A228A153D2D0D
:1019E60083120313D8018A117A228A1501308312D1
:1019F6000313D8008A117A228A1583120313A803C7
:101A060000302806031D152DA903C830A800003094
:101A16002906031D132D0530A9000130AA00152D36
:101A26000330AA003D2DBE21C10300304106031D2F
:101A36002A2DA903C830C10000302906031D282D10
:101A46000530A9000130AA002A2D0230AA003D2D3A
:101A56003D2D2A08013A0319E52C2A08003A0319F4
:101A6600E72C2A08023A0319F32C2A08033A031929
:061A7600162D2B2D0800C7
:101A7C000130831203132D06031D4D2DD401D50106
:101A8C002E08D6008A11E6268A158312AD010800AD
:101A9C008A1163268A150A128000840ACE0A031959
:0A1AAC00CF0AF003031D4E2D0800C1
:101AB6000230831203130C05F2007208F100F10CD8
:101AC600F11301307106031D6B2D0130F3006C2DEF
:081AD600F3017308F0000800A1
:101ADE00C2259424A030D0008630D1000130D2002F
:101AEE000030D300AF248312D001D10158247008E6
:101AFE00A700BD245923F022E322B923AB230130E2
:101B0E002506031D932D9523C723DE24E324FD22F2
:0C1B1E00252436233E25A501862D942D9C
:101B840025308400273083120313F0009A30CE00EE
:081B94000D30CF004E250800C2
:021B340001347A
:021B3600003479
:021B38003C343B
:021B3A00C834AD
:021B3C0005346E
:021B3E00003471
:021B400000346F
:021B420000346D
:021B440000346B
:021B4600003469
:021B4800003467
:021B4A00003465
:021B4C00003463
:021B4E00003461
:021B500000345F
:021B5200043459
:021B540000345B
:021B5600053454
:021B58000A344D
:021B5A00FA345B
:061B5C00003400340034E7
:021B620000344D
:061B6400003400340034DF
:021B6A00003445
:021B6C00C8347B
:021B6E00003441
:041B70000034003409
:021B740000343B
:021B7600003439
:021B7800003437
:021B7A00003435
:021B7C00003433
:021B7E00003431
:021B800000342F
:02400E004A2F37
:00000001FF
